{
  "_format": "hh-sol-artifact-1",
  "contractName": "AnonNews",
  "sourceName": "contracts/AnonNews.sol",
  "abi": [
    {
      "inputs": [],
      "stateMutability": "nonpayable",
      "type": "constructor"
    },
    {
      "anonymous": false,
      "inputs": [
        {
          "indexed": true,
          "internalType": "address",
          "name": "owner",
          "type": "address"
        },
        {
          "indexed": true,
          "internalType": "address",
          "name": "approved",
          "type": "address"
        },
        {
          "indexed": true,
          "internalType": "uint256",
          "name": "tokenId",
          "type": "uint256"
        }
      ],
      "name": "Approval",
      "type": "event"
    },
    {
      "anonymous": false,
      "inputs": [
        {
          "indexed": true,
          "internalType": "address",
          "name": "owner",
          "type": "address"
        },
        {
          "indexed": true,
          "internalType": "address",
          "name": "operator",
          "type": "address"
        },
        {
          "indexed": false,
          "internalType": "bool",
          "name": "approved",
          "type": "bool"
        }
      ],
      "name": "ApprovalForAll",
      "type": "event"
    },
    {
      "anonymous": false,
      "inputs": [
        {
          "indexed": false,
          "internalType": "uint256",
          "name": "id",
          "type": "uint256"
        },
        {
          "indexed": false,
          "internalType": "address payable",
          "name": "author",
          "type": "address"
        },
        {
          "indexed": false,
          "internalType": "string",
          "name": "mediaUrl",
          "type": "string"
        },
        {
          "indexed": false,
          "internalType": "uint256",
          "name": "votes",
          "type": "uint256"
        }
      ],
      "name": "NewsPosted",
      "type": "event"
    },
    {
      "anonymous": false,
      "inputs": [
        {
          "indexed": false,
          "internalType": "uint256",
          "name": "id",
          "type": "uint256"
        },
        {
          "indexed": false,
          "internalType": "address payable",
          "name": "author",
          "type": "address"
        },
        {
          "indexed": false,
          "internalType": "string",
          "name": "mediaUrl",
          "type": "string"
        },
        {
          "indexed": false,
          "internalType": "uint256",
          "name": "votes",
          "type": "uint256"
        }
      ],
      "name": "NewsVoted",
      "type": "event"
    },
    {
      "anonymous": false,
      "inputs": [
        {
          "indexed": true,
          "internalType": "address",
          "name": "from",
          "type": "address"
        },
        {
          "indexed": true,
          "internalType": "address",
          "name": "to",
          "type": "address"
        },
        {
          "indexed": true,
          "internalType": "uint256",
          "name": "tokenId",
          "type": "uint256"
        }
      ],
      "name": "Transfer",
      "type": "event"
    },
    {
      "inputs": [
        {
          "internalType": "address",
          "name": "to",
          "type": "address"
        },
        {
          "internalType": "uint256",
          "name": "tokenId",
          "type": "uint256"
        }
      ],
      "name": "approve",
      "outputs": [],
      "stateMutability": "nonpayable",
      "type": "function"
    },
    {
      "inputs": [
        {
          "internalType": "address",
          "name": "owner",
          "type": "address"
        }
      ],
      "name": "balanceOf",
      "outputs": [
        {
          "internalType": "uint256",
          "name": "",
          "type": "uint256"
        }
      ],
      "stateMutability": "view",
      "type": "function"
    },
    {
      "inputs": [],
      "name": "getAllNews",
      "outputs": [
        {
          "components": [
            {
              "internalType": "uint256",
              "name": "id",
              "type": "uint256"
            },
            {
              "internalType": "address payable",
              "name": "author",
              "type": "address"
            },
            {
              "internalType": "string",
              "name": "mediaUrl",
              "type": "string"
            },
            {
              "internalType": "uint256",
              "name": "votes",
              "type": "uint256"
            },
            {
              "internalType": "uint256",
              "name": "timestamp",
              "type": "uint256"
            }
          ],
          "internalType": "struct AnonNews.Post[]",
          "name": "_posts",
          "type": "tuple[]"
        }
      ],
      "stateMutability": "view",
      "type": "function"
    },
    {
      "inputs": [
        {
          "internalType": "uint256",
          "name": "tokenId",
          "type": "uint256"
        }
      ],
      "name": "getApproved",
      "outputs": [
        {
          "internalType": "address",
          "name": "",
          "type": "address"
        }
      ],
      "stateMutability": "view",
      "type": "function"
    },
    {
      "inputs": [
        {
          "internalType": "address",
          "name": "owner",
          "type": "address"
        },
        {
          "internalType": "address",
          "name": "operator",
          "type": "address"
        }
      ],
      "name": "isApprovedForAll",
      "outputs": [
        {
          "internalType": "bool",
          "name": "",
          "type": "bool"
        }
      ],
      "stateMutability": "view",
      "type": "function"
    },
    {
      "inputs": [],
      "name": "name",
      "outputs": [
        {
          "internalType": "string",
          "name": "",
          "type": "string"
        }
      ],
      "stateMutability": "view",
      "type": "function"
    },
    {
      "inputs": [
        {
          "internalType": "uint256",
          "name": "tokenId",
          "type": "uint256"
        }
      ],
      "name": "ownerOf",
      "outputs": [
        {
          "internalType": "address",
          "name": "",
          "type": "address"
        }
      ],
      "stateMutability": "view",
      "type": "function"
    },
    {
      "inputs": [
        {
          "internalType": "string",
          "name": "mediaUrl",
          "type": "string"
        }
      ],
      "name": "postNews",
      "outputs": [],
      "stateMutability": "nonpayable",
      "type": "function"
    },
    {
      "inputs": [
        {
          "internalType": "uint256",
          "name": "",
          "type": "uint256"
        }
      ],
      "name": "posts",
      "outputs": [
        {
          "internalType": "uint256",
          "name": "id",
          "type": "uint256"
        },
        {
          "internalType": "address payable",
          "name": "author",
          "type": "address"
        },
        {
          "internalType": "string",
          "name": "mediaUrl",
          "type": "string"
        },
        {
          "internalType": "uint256",
          "name": "votes",
          "type": "uint256"
        },
        {
          "internalType": "uint256",
          "name": "timestamp",
          "type": "uint256"
        }
      ],
      "stateMutability": "view",
      "type": "function"
    },
    {
      "inputs": [
        {
          "internalType": "address",
          "name": "from",
          "type": "address"
        },
        {
          "internalType": "address",
          "name": "to",
          "type": "address"
        },
        {
          "internalType": "uint256",
          "name": "tokenId",
          "type": "uint256"
        }
      ],
      "name": "safeTransferFrom",
      "outputs": [],
      "stateMutability": "nonpayable",
      "type": "function"
    },
    {
      "inputs": [
        {
          "internalType": "address",
          "name": "from",
          "type": "address"
        },
        {
          "internalType": "address",
          "name": "to",
          "type": "address"
        },
        {
          "internalType": "uint256",
          "name": "tokenId",
          "type": "uint256"
        },
        {
          "internalType": "bytes",
          "name": "_data",
          "type": "bytes"
        }
      ],
      "name": "safeTransferFrom",
      "outputs": [],
      "stateMutability": "nonpayable",
      "type": "function"
    },
    {
      "inputs": [
        {
          "internalType": "address",
          "name": "operator",
          "type": "address"
        },
        {
          "internalType": "bool",
          "name": "approved",
          "type": "bool"
        }
      ],
      "name": "setApprovalForAll",
      "outputs": [],
      "stateMutability": "nonpayable",
      "type": "function"
    },
    {
      "inputs": [
        {
          "internalType": "bytes4",
          "name": "interfaceId",
          "type": "bytes4"
        }
      ],
      "name": "supportsInterface",
      "outputs": [
        {
          "internalType": "bool",
          "name": "",
          "type": "bool"
        }
      ],
      "stateMutability": "view",
      "type": "function"
    },
    {
      "inputs": [],
      "name": "symbol",
      "outputs": [
        {
          "internalType": "string",
          "name": "",
          "type": "string"
        }
      ],
      "stateMutability": "view",
      "type": "function"
    },
    {
      "inputs": [
        {
          "internalType": "uint256",
          "name": "tokenId",
          "type": "uint256"
        }
      ],
      "name": "tokenURI",
      "outputs": [
        {
          "internalType": "string",
          "name": "",
          "type": "string"
        }
      ],
      "stateMutability": "view",
      "type": "function"
    },
    {
      "inputs": [
        {
          "internalType": "address",
          "name": "from",
          "type": "address"
        },
        {
          "internalType": "address",
          "name": "to",
          "type": "address"
        },
        {
          "internalType": "uint256",
          "name": "tokenId",
          "type": "uint256"
        }
      ],
      "name": "transferFrom",
      "outputs": [],
      "stateMutability": "nonpayable",
      "type": "function"
    },
    {
      "inputs": [
        {
          "internalType": "uint256",
          "name": "_id",
          "type": "uint256"
        }
      ],
      "name": "voteNews",
      "outputs": [],
      "stateMutability": "payable",
      "type": "function"
    }
  ],
  "bytecode": "0x60806040523480156200001157600080fd5b506040518060400160405280600881526020017f416e6f6e4e6577730000000000000000000000000000000000000000000000008152506040518060400160405280600481526020017f4441505000000000000000000000000000000000000000000000000000000000815250816000908051906020019062000096929190620001cf565b508060019080519060200190620000af929190620001cf565b505050620000fd6040518060400160405280601181526020017f416e6f6e4e65777320436f6e74726163740000000000000000000000000000008152506200010360201b620012771760201c565b620003ac565b620001a3816040516024016200011a9190620002c0565b6040516020818303038152906040527f41304fac000000000000000000000000000000000000000000000000000000007bffffffffffffffffffffffffffffffffffffffffffffffffffffffff19166020820180517bffffffffffffffffffffffffffffffffffffffffffffffffffffffff8381831617835250505050620001a660201b60201c565b50565b60008151905060006a636f6e736f6c652e6c6f679050602083016000808483855afa5050505050565b828054620001dd9062000336565b90600052602060002090601f0160209004810192826200020157600085556200024d565b82601f106200021c57805160ff19168380011785556200024d565b828001600101855582156200024d579182015b828111156200024c5782518255916020019190600101906200022f565b5b5090506200025c919062000260565b5090565b5b808211156200027b57600081600090555060010162000261565b5090565b60006200028c82620002e4565b620002988185620002ef565b9350620002aa81856020860162000300565b620002b5816200039b565b840191505092915050565b60006020820190508181036000830152620002dc81846200027f565b905092915050565b600081519050919050565b600082825260208201905092915050565b60005b838110156200032057808201518184015260208101905062000303565b8381111562000330576000848401525b50505050565b600060028204905060018216806200034f57607f821691505b602082108114156200036657620003656200036c565b5b50919050565b7f4e487b7100000000000000000000000000000000000000000000000000000000600052602260045260246000fd5b6000601f19601f8301169050919050565b61397480620003bc6000396000f3fe6080604052600436106100fe5760003560e01c806370a0823111610095578063b88d4fde11610064578063b88d4fde1461034e578063c87b56dd14610377578063d5c5aba9146103b4578063e985e9c5146103dd578063f584ecd11461041a576100fe565b806370a08231146102a157806393e025ad146102de57806395d89b41146102fa578063a22cb46514610325576100fe565b80630b1e7f83116100d15780630b1e7f83146101d157806323b872dd1461021257806342842e0e1461023b5780636352211e14610264576100fe565b806301ffc9a71461010357806306fdde0314610140578063081812fc1461016b578063095ea7b3146101a8575b600080fd5b34801561010f57600080fd5b5061012a60048036038101906101259190612612565b610445565b6040516101379190612c35565b60405180910390f35b34801561014c57600080fd5b50610155610527565b6040516101629190612c50565b60405180910390f35b34801561017757600080fd5b50610192600480360381019061018d91906126a5565b6105b9565b60405161019f9190612bac565b60405180910390f35b3480156101b457600080fd5b506101cf60048036038101906101ca91906125d6565b61063e565b005b3480156101dd57600080fd5b506101f860048036038101906101f391906126a5565b610756565b604051610209959493929190612f65565b60405180910390f35b34801561021e57600080fd5b50610239600480360381019061023491906124d0565b610834565b005b34801561024757600080fd5b50610262600480360381019061025d91906124d0565b610894565b005b34801561027057600080fd5b5061028b600480360381019061028691906126a5565b6108b4565b6040516102989190612bac565b60405180910390f35b3480156102ad57600080fd5b506102c860048036038101906102c3919061246b565b610966565b6040516102d59190612eb2565b60405180910390f35b6102f860048036038101906102f391906126a5565b610a1e565b005b34801561030657600080fd5b5061030f610d5f565b60405161031c9190612c50565b60405180910390f35b34801561033157600080fd5b5061034c6004803603810190610347919061259a565b610df1565b005b34801561035a57600080fd5b506103756004803603810190610370919061251f565b610e07565b005b34801561038357600080fd5b5061039e600480360381019061039991906126a5565b610e69565b6040516103ab9190612c50565b60405180910390f35b3480156103c057600080fd5b506103db60048036038101906103d69190612664565b610e7b565b005b3480156103e957600080fd5b5061040460048036038101906103ff9190612494565b610fbf565b6040516104119190612c35565b60405180910390f35b34801561042657600080fd5b5061042f611053565b60405161043c9190612c13565b60405180910390f35b60007f80ac58cd000000000000000000000000000000000000000000000000000000007bffffffffffffffffffffffffffffffffffffffffffffffffffffffff1916827bffffffffffffffffffffffffffffffffffffffffffffffffffffffff1916148061051057507f5b5e139f000000000000000000000000000000000000000000000000000000007bffffffffffffffffffffffffffffffffffffffffffffffffffffffff1916827bffffffffffffffffffffffffffffffffffffffffffffffffffffffff1916145b80610520575061051f82611310565b5b9050919050565b60606000805461053690613268565b80601f016020809104026020016040519081016040528092919081815260200182805461056290613268565b80156105af5780601f10610584576101008083540402835291602001916105af565b820191906000526020600020905b81548152906001019060200180831161059257829003601f168201915b5050505050905090565b60006105c48261137a565b610603576040517f08c379a00000000000000000000000000000000000000000000000000000000081526004016105fa90612e32565b60405180910390fd5b6004600083815260200190815260200160002060009054906101000a900473ffffffffffffffffffffffffffffffffffffffff169050919050565b6000610649826108b4565b90508073ffffffffffffffffffffffffffffffffffffffff168373ffffffffffffffffffffffffffffffffffffffff1614156106ba576040517f08c379a00000000000000000000000000000000000000000000000000000000081526004016106b190612e72565b60405180910390fd5b8073ffffffffffffffffffffffffffffffffffffffff166106d96113e6565b73ffffffffffffffffffffffffffffffffffffffff1614806107085750610707816107026113e6565b610fbf565b5b610747576040517f08c379a000000000000000000000000000000000000000000000000000000000815260040161073e90612d32565b60405180910390fd5b61075183836113ee565b505050565b60086020528060005260406000206000915090508060000154908060010160009054906101000a900473ffffffffffffffffffffffffffffffffffffffff16908060020180546107a590613268565b80601f01602080910402602001604051908101604052809291908181526020018280546107d190613268565b801561081e5780601f106107f35761010080835404028352916020019161081e565b820191906000526020600020905b81548152906001019060200180831161080157829003601f168201915b5050505050908060030154908060040154905085565b61084561083f6113e6565b826114a7565b610884576040517f08c379a000000000000000000000000000000000000000000000000000000000815260040161087b90612e92565b60405180910390fd5b61088f838383611585565b505050565b6108af83838360405180602001604052806000815250610e07565b505050565b6000806002600084815260200190815260200160002060009054906101000a900473ffffffffffffffffffffffffffffffffffffffff169050600073ffffffffffffffffffffffffffffffffffffffff168173ffffffffffffffffffffffffffffffffffffffff16141561095d576040517f08c379a000000000000000000000000000000000000000000000000000000000815260040161095490612d72565b60405180910390fd5b80915050919050565b60008073ffffffffffffffffffffffffffffffffffffffff168273ffffffffffffffffffffffffffffffffffffffff1614156109d7576040517f08c379a00000000000000000000000000000000000000000000000000000000081526004016109ce90612d52565b60405180910390fd5b600360008373ffffffffffffffffffffffffffffffffffffffff1673ffffffffffffffffffffffffffffffffffffffff168152602001908152602001600020549050919050565b6000610a2a60076117ec565b905060008210158015610a3d5750808211155b610a7c576040517f08c379a0000000000000000000000000000000000000000000000000000000008152600401610a7390612db2565b60405180910390fd5b6000600860008481526020019081526020016000206040518060a0016040529081600082015481526020016001820160009054906101000a900473ffffffffffffffffffffffffffffffffffffffff1673ffffffffffffffffffffffffffffffffffffffff1673ffffffffffffffffffffffffffffffffffffffff168152602001600282018054610b0c90613268565b80601f0160208091040260200160405190810160405280929190818152602001828054610b3890613268565b8015610b855780601f10610b5a57610100808354040283529160200191610b85565b820191906000526020600020905b815481529060010190602001808311610b6857829003601f168201915b505050505081526020016003820154815260200160048201548152505090503373ffffffffffffffffffffffffffffffffffffffff16816020015173ffffffffffffffffffffffffffffffffffffffff161415610c17576040517f08c379a0000000000000000000000000000000000000000000000000000000008152600401610c0e90612dd2565b60405180910390fd5b806020015173ffffffffffffffffffffffffffffffffffffffff166108fc349081150290604051600060405180830381858888f19350505050158015610c61573d6000803e3d6000fd5b50806060018051809190610c74906132cb565b8152505080600860008581526020019081526020016000206000820151816000015560208201518160010160006101000a81548173ffffffffffffffffffffffffffffffffffffffff021916908373ffffffffffffffffffffffffffffffffffffffff1602179055506040820151816002019080519060200190610cf992919061224a565b5060608201518160030155608082015181600401559050507f66bbc77a2330866e7c8ce4c6aef3436c218398c5132c6433a35309330238e32883826020015183604001518460600151604051610d529493929190612f19565b60405180910390a1505050565b606060018054610d6e90613268565b80601f0160208091040260200160405190810160405280929190818152602001828054610d9a90613268565b8015610de75780601f10610dbc57610100808354040283529160200191610de7565b820191906000526020600020905b815481529060010190602001808311610dca57829003601f168201915b5050505050905090565b610e03610dfc6113e6565b83836117fa565b5050565b610e18610e126113e6565b836114a7565b610e57576040517f08c379a0000000000000000000000000000000000000000000000000000000008152600401610e4e90612e92565b60405180910390fd5b610e6384848484611967565b50505050565b6060610e74826119c3565b9050919050565b6000610e8760076117ec565b9050610e933382611b15565b610e9d8183611b33565b6040518060a001604052808281526020013373ffffffffffffffffffffffffffffffffffffffff1681526020018381526020016000815260200142815250600860008381526020019081526020016000206000820151816000015560208201518160010160006101000a81548173ffffffffffffffffffffffffffffffffffffffff021916908373ffffffffffffffffffffffffffffffffffffffff1602179055506040820151816002019080519060200190610f5b92919061224a565b506060820151816003015560808201518160040155905050610f7d6007611ba7565b7fb9c6f5aa8b346bf75216a142695b03eede0f755daa1817c90d7cbbc8a4e57ca68133846000604051610fb39493929190612ecd565b60405180910390a15050565b6000600560008473ffffffffffffffffffffffffffffffffffffffff1673ffffffffffffffffffffffffffffffffffffffff16815260200190815260200160002060008373ffffffffffffffffffffffffffffffffffffffff1673ffffffffffffffffffffffffffffffffffffffff16815260200190815260200160002060009054906101000a900460ff16905092915050565b6060600061106160076117ec565b90508067ffffffffffffffff8111156110a3577f4e487b7100000000000000000000000000000000000000000000000000000000600052604160045260246000fd5b6040519080825280602002602001820160405280156110dc57816020015b6110c96122d0565b8152602001906001900390816110c15790505b50915060005b825181101561127257600860006001836110fc91906130d3565b81526020019081526020016000206040518060a0016040529081600082015481526020016001820160009054906101000a900473ffffffffffffffffffffffffffffffffffffffff1673ffffffffffffffffffffffffffffffffffffffff1673ffffffffffffffffffffffffffffffffffffffff16815260200160028201805461118590613268565b80601f01602080910402602001604051908101604052809291908181526020018280546111b190613268565b80156111fe5780601f106111d3576101008083540402835291602001916111fe565b820191906000526020600020905b8154815290600101906020018083116111e157829003601f168201915b5050505050815260200160038201548152602001600482015481525050838281518110611254577f4e487b7100000000000000000000000000000000000000000000000000000000600052603260045260246000fd5b6020026020010181905250808061126a906132cb565b9150506110e2565b505090565b61130d8160405160240161128b9190612c50565b6040516020818303038152906040527f41304fac000000000000000000000000000000000000000000000000000000007bffffffffffffffffffffffffffffffffffffffffffffffffffffffff19166020820180517bffffffffffffffffffffffffffffffffffffffffffffffffffffffff8381831617835250505050611bbd565b50565b60007f01ffc9a7000000000000000000000000000000000000000000000000000000007bffffffffffffffffffffffffffffffffffffffffffffffffffffffff1916827bffffffffffffffffffffffffffffffffffffffffffffffffffffffff1916149050919050565b60008073ffffffffffffffffffffffffffffffffffffffff166002600084815260200190815260200160002060009054906101000a900473ffffffffffffffffffffffffffffffffffffffff1673ffffffffffffffffffffffffffffffffffffffff1614159050919050565b600033905090565b816004600083815260200190815260200160002060006101000a81548173ffffffffffffffffffffffffffffffffffffffff021916908373ffffffffffffffffffffffffffffffffffffffff160217905550808273ffffffffffffffffffffffffffffffffffffffff16611461836108b4565b73ffffffffffffffffffffffffffffffffffffffff167f8c5be1e5ebec7d5bd14f71427d1e84f3dd0314c0f7b2291e5b200ac8c7c3b92560405160405180910390a45050565b60006114b28261137a565b6114f1576040517f08c379a00000000000000000000000000000000000000000000000000000000081526004016114e890612d12565b60405180910390fd5b60006114fc836108b4565b90508073ffffffffffffffffffffffffffffffffffffffff168473ffffffffffffffffffffffffffffffffffffffff16148061153e575061153d8185610fbf565b5b8061157c57508373ffffffffffffffffffffffffffffffffffffffff16611564846105b9565b73ffffffffffffffffffffffffffffffffffffffff16145b91505092915050565b8273ffffffffffffffffffffffffffffffffffffffff166115a5826108b4565b73ffffffffffffffffffffffffffffffffffffffff16146115fb576040517f08c379a00000000000000000000000000000000000000000000000000000000081526004016115f290612c92565b60405180910390fd5b600073ffffffffffffffffffffffffffffffffffffffff168273ffffffffffffffffffffffffffffffffffffffff16141561166b576040517f08c379a000000000000000000000000000000000000000000000000000000000815260040161166290612cd2565b60405180910390fd5b611676838383611be6565b6116816000826113ee565b6001600360008573ffffffffffffffffffffffffffffffffffffffff1673ffffffffffffffffffffffffffffffffffffffff16815260200190815260200160002060008282546116d1919061315a565b925050819055506001600360008473ffffffffffffffffffffffffffffffffffffffff1673ffffffffffffffffffffffffffffffffffffffff168152602001908152602001600020600082825461172891906130d3565b92505081905550816002600083815260200190815260200160002060006101000a81548173ffffffffffffffffffffffffffffffffffffffff021916908373ffffffffffffffffffffffffffffffffffffffff160217905550808273ffffffffffffffffffffffffffffffffffffffff168473ffffffffffffffffffffffffffffffffffffffff167fddf252ad1be2c89b69c2b068fc378daa952ba7f163c4a11628f55a4df523b3ef60405160405180910390a46117e7838383611beb565b505050565b600081600001549050919050565b8173ffffffffffffffffffffffffffffffffffffffff168373ffffffffffffffffffffffffffffffffffffffff161415611869576040517f08c379a000000000000000000000000000000000000000000000000000000000815260040161186090612cf2565b60405180910390fd5b80600560008573ffffffffffffffffffffffffffffffffffffffff1673ffffffffffffffffffffffffffffffffffffffff16815260200190815260200160002060008473ffffffffffffffffffffffffffffffffffffffff1673ffffffffffffffffffffffffffffffffffffffff16815260200190815260200160002060006101000a81548160ff0219169083151502179055508173ffffffffffffffffffffffffffffffffffffffff168373ffffffffffffffffffffffffffffffffffffffff167f17307eab39ab6107e8899845ad3d59bd9653f200f220920489ca2b5937696c318360405161195a9190612c35565b60405180910390a3505050565b611972848484611585565b61197e84848484611bf0565b6119bd576040517f08c379a00000000000000000000000000000000000000000000000000000000081526004016119b490612c72565b60405180910390fd5b50505050565b60606119ce8261137a565b611a0d576040517f08c379a0000000000000000000000000000000000000000000000000000000008152600401611a0490612e12565b60405180910390fd5b6000600660008481526020019081526020016000208054611a2d90613268565b80601f0160208091040260200160405190810160405280929190818152602001828054611a5990613268565b8015611aa65780601f10611a7b57610100808354040283529160200191611aa6565b820191906000526020600020905b815481529060010190602001808311611a8957829003601f168201915b505050505090506000611ab7611d87565b9050600081511415611acd578192505050611b10565b600082511115611b02578082604051602001611aea929190612b88565b60405160208183030381529060405292505050611b10565b611b0b84611d9e565b925050505b919050565b611b2f828260405180602001604052806000815250611e45565b5050565b611b3c8261137a565b611b7b576040517f08c379a0000000000000000000000000000000000000000000000000000000008152600401611b7290612d92565b60405180910390fd5b80600660008481526020019081526020016000209080519060200190611ba292919061224a565b505050565b6001816000016000828254019250508190555050565b60008151905060006a636f6e736f6c652e6c6f679050602083016000808483855afa5050505050565b505050565b505050565b6000611c118473ffffffffffffffffffffffffffffffffffffffff16611ea0565b15611d7a578373ffffffffffffffffffffffffffffffffffffffff1663150b7a02611c3a6113e6565b8786866040518563ffffffff1660e01b8152600401611c5c9493929190612bc7565b602060405180830381600087803b158015611c7657600080fd5b505af1925050508015611ca757506040513d601f19601f82011682018060405250810190611ca4919061263b565b60015b611d2a573d8060008114611cd7576040519150601f19603f3d011682016040523d82523d6000602084013e611cdc565b606091505b50600081511415611d22576040517f08c379a0000000000000000000000000000000000000000000000000000000008152600401611d1990612c72565b60405180910390fd5b805181602001fd5b63150b7a0260e01b7bffffffffffffffffffffffffffffffffffffffffffffffffffffffff1916817bffffffffffffffffffffffffffffffffffffffffffffffffffffffff191614915050611d7f565b600190505b949350505050565b606060405180602001604052806000815250905090565b6060611da98261137a565b611de8576040517f08c379a0000000000000000000000000000000000000000000000000000000008152600401611ddf90612e52565b60405180910390fd5b6000611df2611d87565b90506000815111611e125760405180602001604052806000815250611e3d565b80611e1c84611ec3565b604051602001611e2d929190612b88565b6040516020818303038152906040525b915050919050565b611e4f8383612070565b611e5c6000848484611bf0565b611e9b576040517f08c379a0000000000000000000000000000000000000000000000000000000008152600401611e9290612c72565b60405180910390fd5b505050565b6000808273ffffffffffffffffffffffffffffffffffffffff163b119050919050565b60606000821415611f0b576040518060400160405280600181526020017f3000000000000000000000000000000000000000000000000000000000000000815250905061206b565b600082905060005b60008214611f3d578080611f26906132cb565b915050600a82611f369190613129565b9150611f13565b60008167ffffffffffffffff811115611f7f577f4e487b7100000000000000000000000000000000000000000000000000000000600052604160045260246000fd5b6040519080825280601f01601f191660200182016040528015611fb15781602001600182028036833780820191505090505b5090505b6000851461206457600182611fca919061315a565b9150600a85611fd99190613314565b6030611fe591906130d3565b60f81b818381518110612021577f4e487b7100000000000000000000000000000000000000000000000000000000600052603260045260246000fd5b60200101907effffffffffffffffffffffffffffffffffffffffffffffffffffffffffffff1916908160001a905350600a8561205d9190613129565b9450611fb5565b8093505050505b919050565b600073ffffffffffffffffffffffffffffffffffffffff168273ffffffffffffffffffffffffffffffffffffffff1614156120e0576040517f08c379a00000000000000000000000000000000000000000000000000000000081526004016120d790612df2565b60405180910390fd5b6120e98161137a565b15612129576040517f08c379a000000000000000000000000000000000000000000000000000000000815260040161212090612cb2565b60405180910390fd5b61213560008383611be6565b6001600360008473ffffffffffffffffffffffffffffffffffffffff1673ffffffffffffffffffffffffffffffffffffffff168152602001908152602001600020600082825461218591906130d3565b92505081905550816002600083815260200190815260200160002060006101000a81548173ffffffffffffffffffffffffffffffffffffffff021916908373ffffffffffffffffffffffffffffffffffffffff160217905550808273ffffffffffffffffffffffffffffffffffffffff16600073ffffffffffffffffffffffffffffffffffffffff167fddf252ad1be2c89b69c2b068fc378daa952ba7f163c4a11628f55a4df523b3ef60405160405180910390a461224660008383611beb565b5050565b82805461225690613268565b90600052602060002090601f01602090048101928261227857600085556122bf565b82601f1061229157805160ff19168380011785556122bf565b828001600101855582156122bf579182015b828111156122be5782518255916020019190600101906122a3565b5b5090506122cc9190612315565b5090565b6040518060a0016040528060008152602001600073ffffffffffffffffffffffffffffffffffffffff1681526020016060815260200160008152602001600081525090565b5b8082111561232e576000816000905550600101612316565b5090565b600061234561234084612fe4565b612fbf565b90508281526020810184848401111561235d57600080fd5b612368848285613226565b509392505050565b600061238361237e84613015565b612fbf565b90508281526020810184848401111561239b57600080fd5b6123a6848285613226565b509392505050565b6000813590506123bd816138e2565b92915050565b6000813590506123d2816138f9565b92915050565b6000813590506123e781613910565b92915050565b6000815190506123fc81613910565b92915050565b600082601f83011261241357600080fd5b8135612423848260208601612332565b91505092915050565b600082601f83011261243d57600080fd5b813561244d848260208601612370565b91505092915050565b60008135905061246581613927565b92915050565b60006020828403121561247d57600080fd5b600061248b848285016123ae565b91505092915050565b600080604083850312156124a757600080fd5b60006124b5858286016123ae565b92505060206124c6858286016123ae565b9150509250929050565b6000806000606084860312156124e557600080fd5b60006124f3868287016123ae565b9350506020612504868287016123ae565b925050604061251586828701612456565b9150509250925092565b6000806000806080858703121561253557600080fd5b6000612543878288016123ae565b9450506020612554878288016123ae565b935050604061256587828801612456565b925050606085013567ffffffffffffffff81111561258257600080fd5b61258e87828801612402565b91505092959194509250565b600080604083850312156125ad57600080fd5b60006125bb858286016123ae565b92505060206125cc858286016123c3565b9150509250929050565b600080604083850312156125e957600080fd5b60006125f7858286016123ae565b925050602061260885828601612456565b9150509250929050565b60006020828403121561262457600080fd5b6000612632848285016123d8565b91505092915050565b60006020828403121561264d57600080fd5b600061265b848285016123ed565b91505092915050565b60006020828403121561267657600080fd5b600082013567ffffffffffffffff81111561269057600080fd5b61269c8482850161242c565b91505092915050565b6000602082840312156126b757600080fd5b60006126c584828501612456565b91505092915050565b60006126da8383612af4565b905092915050565b6126eb816131a0565b82525050565b6126fa816131a0565b82525050565b6127098161318e565b82525050565b600061271a82613056565b6127248185613084565b93508360208202850161273685613046565b8060005b85811015612772578484038952815161275385826126ce565b945061275e83613077565b925060208a0199505060018101905061273a565b50829750879550505050505092915050565b61278d816131b2565b82525050565b600061279e82613061565b6127a88185613095565b93506127b8818560208601613235565b6127c181613401565b840191505092915050565b6127d581613214565b82525050565b60006127e68261306c565b6127f081856130a6565b9350612800818560208601613235565b61280981613401565b840191505092915050565b600061281f8261306c565b61282981856130b7565b9350612839818560208601613235565b61284281613401565b840191505092915050565b60006128588261306c565b61286281856130c8565b9350612872818560208601613235565b80840191505092915050565b600061288b6032836130b7565b915061289682613412565b604082019050919050565b60006128ae6025836130b7565b91506128b982613461565b604082019050919050565b60006128d1601c836130b7565b91506128dc826134b0565b602082019050919050565b60006128f46024836130b7565b91506128ff826134d9565b604082019050919050565b60006129176019836130b7565b915061292282613528565b602082019050919050565b600061293a602c836130b7565b915061294582613551565b604082019050919050565b600061295d6038836130b7565b9150612968826135a0565b604082019050919050565b6000612980602a836130b7565b915061298b826135ef565b604082019050919050565b60006129a36029836130b7565b91506129ae8261363e565b604082019050919050565b60006129c6602e836130b7565b91506129d18261368d565b604082019050919050565b60006129e9600f836130b7565b91506129f4826136dc565b602082019050919050565b6000612a0c6019836130b7565b9150612a1782613705565b602082019050919050565b6000612a2f6020836130b7565b9150612a3a8261372e565b602082019050919050565b6000612a526031836130b7565b9150612a5d82613757565b604082019050919050565b6000612a75602c836130b7565b9150612a80826137a6565b604082019050919050565b6000612a98602f836130b7565b9150612aa3826137f5565b604082019050919050565b6000612abb6021836130b7565b9150612ac682613844565b604082019050919050565b6000612ade6031836130b7565b9150612ae982613893565b604082019050919050565b600060a083016000830151612b0c6000860182612b6a565b506020830151612b1f60208601826126e2565b5060408301518482036040860152612b3782826127db565b9150506060830151612b4c6060860182612b6a565b506080830151612b5f6080860182612b6a565b508091505092915050565b612b738161320a565b82525050565b612b828161320a565b82525050565b6000612b94828561284d565b9150612ba0828461284d565b91508190509392505050565b6000602082019050612bc16000830184612700565b92915050565b6000608082019050612bdc6000830187612700565b612be96020830186612700565b612bf66040830185612b79565b8181036060830152612c088184612793565b905095945050505050565b60006020820190508181036000830152612c2d818461270f565b905092915050565b6000602082019050612c4a6000830184612784565b92915050565b60006020820190508181036000830152612c6a8184612814565b905092915050565b60006020820190508181036000830152612c8b8161287e565b9050919050565b60006020820190508181036000830152612cab816128a1565b9050919050565b60006020820190508181036000830152612ccb816128c4565b9050919050565b60006020820190508181036000830152612ceb816128e7565b9050919050565b60006020820190508181036000830152612d0b8161290a565b9050919050565b60006020820190508181036000830152612d2b8161292d565b9050919050565b60006020820190508181036000830152612d4b81612950565b9050919050565b60006020820190508181036000830152612d6b81612973565b9050919050565b60006020820190508181036000830152612d8b81612996565b9050919050565b60006020820190508181036000830152612dab816129b9565b9050919050565b60006020820190508181036000830152612dcb816129dc565b9050919050565b60006020820190508181036000830152612deb816129ff565b9050919050565b60006020820190508181036000830152612e0b81612a22565b9050919050565b60006020820190508181036000830152612e2b81612a45565b9050919050565b60006020820190508181036000830152612e4b81612a68565b9050919050565b60006020820190508181036000830152612e6b81612a8b565b9050919050565b60006020820190508181036000830152612e8b81612aae565b9050919050565b60006020820190508181036000830152612eab81612ad1565b9050919050565b6000602082019050612ec76000830184612b79565b92915050565b6000608082019050612ee26000830187612b79565b612eef60208301866126f1565b8181036040830152612f018185612814565b9050612f1060608301846127cc565b95945050505050565b6000608082019050612f2e6000830187612b79565b612f3b60208301866126f1565b8181036040830152612f4d8185612814565b9050612f5c6060830184612b79565b95945050505050565b600060a082019050612f7a6000830188612b79565b612f8760208301876126f1565b8181036040830152612f998186612814565b9050612fa86060830185612b79565b612fb56080830184612b79565b9695505050505050565b6000612fc9612fda565b9050612fd5828261329a565b919050565b6000604051905090565b600067ffffffffffffffff821115612fff57612ffe6133d2565b5b61300882613401565b9050602081019050919050565b600067ffffffffffffffff8211156130305761302f6133d2565b5b61303982613401565b9050602081019050919050565b6000819050602082019050919050565b600081519050919050565b600081519050919050565b600081519050919050565b6000602082019050919050565b600082825260208201905092915050565b600082825260208201905092915050565b600082825260208201905092915050565b600082825260208201905092915050565b600081905092915050565b60006130de8261320a565b91506130e98361320a565b9250827fffffffffffffffffffffffffffffffffffffffffffffffffffffffffffffffff0382111561311e5761311d613345565b5b828201905092915050565b60006131348261320a565b915061313f8361320a565b92508261314f5761314e613374565b5b828204905092915050565b60006131658261320a565b91506131708361320a565b92508282101561318357613182613345565b5b828203905092915050565b6000613199826131ea565b9050919050565b60006131ab826131ea565b9050919050565b60008115159050919050565b60007fffffffff0000000000000000000000000000000000000000000000000000000082169050919050565b600073ffffffffffffffffffffffffffffffffffffffff82169050919050565b6000819050919050565b600061321f8261320a565b9050919050565b82818337600083830152505050565b60005b83811015613253578082015181840152602081019050613238565b83811115613262576000848401525b50505050565b6000600282049050600182168061328057607f821691505b60208210811415613294576132936133a3565b5b50919050565b6132a382613401565b810181811067ffffffffffffffff821117156132c2576132c16133d2565b5b80604052505050565b60006132d68261320a565b91507fffffffffffffffffffffffffffffffffffffffffffffffffffffffffffffffff82141561330957613308613345565b5b600182019050919050565b600061331f8261320a565b915061332a8361320a565b92508261333a57613339613374565b5b828206905092915050565b7f4e487b7100000000000000000000000000000000000000000000000000000000600052601160045260246000fd5b7f4e487b7100000000000000000000000000000000000000000000000000000000600052601260045260246000fd5b7f4e487b7100000000000000000000000000000000000000000000000000000000600052602260045260246000fd5b7f4e487b7100000000000000000000000000000000000000000000000000000000600052604160045260246000fd5b6000601f19601f8301169050919050565b7f4552433732313a207472616e7366657220746f206e6f6e20455243373231526560008201527f63656976657220696d706c656d656e7465720000000000000000000000000000602082015250565b7f4552433732313a207472616e736665722066726f6d20696e636f72726563742060008201527f6f776e6572000000000000000000000000000000000000000000000000000000602082015250565b7f4552433732313a20746f6b656e20616c7265616479206d696e74656400000000600082015250565b7f4552433732313a207472616e7366657220746f20746865207a65726f2061646460008201527f7265737300000000000000000000000000000000000000000000000000000000602082015250565b7f4552433732313a20617070726f766520746f2063616c6c657200000000000000600082015250565b7f4552433732313a206f70657261746f7220717565727920666f72206e6f6e657860008201527f697374656e7420746f6b656e0000000000000000000000000000000000000000602082015250565b7f4552433732313a20617070726f76652063616c6c6572206973206e6f74206f7760008201527f6e6572206e6f7220617070726f76656420666f7220616c6c0000000000000000602082015250565b7f4552433732313a2062616c616e636520717565727920666f7220746865207a6560008201527f726f206164647265737300000000000000000000000000000000000000000000602082015250565b7f4552433732313a206f776e657220717565727920666f72206e6f6e657869737460008201527f656e7420746f6b656e0000000000000000000000000000000000000000000000602082015250565b7f45524337323155524953746f726167653a2055524920736574206f66206e6f6e60008201527f6578697374656e7420746f6b656e000000000000000000000000000000000000602082015250565b7f496e76616c696420706f73742069640000000000000000000000000000000000600082015250565b7f43616e6e6f7420766f746520796f7572206f776e20706f737400000000000000600082015250565b7f4552433732313a206d696e7420746f20746865207a65726f2061646472657373600082015250565b7f45524337323155524953746f726167653a2055524920717565727920666f722060008201527f6e6f6e6578697374656e7420746f6b656e000000000000000000000000000000602082015250565b7f4552433732313a20617070726f76656420717565727920666f72206e6f6e657860008201527f697374656e7420746f6b656e0000000000000000000000000000000000000000602082015250565b7f4552433732314d657461646174613a2055524920717565727920666f72206e6f60008201527f6e6578697374656e7420746f6b656e0000000000000000000000000000000000602082015250565b7f4552433732313a20617070726f76616c20746f2063757272656e74206f776e6560008201527f7200000000000000000000000000000000000000000000000000000000000000602082015250565b7f4552433732313a207472616e736665722063616c6c6572206973206e6f74206f60008201527f776e6572206e6f7220617070726f766564000000000000000000000000000000602082015250565b6138eb8161318e565b81146138f657600080fd5b50565b613902816131b2565b811461390d57600080fd5b50565b613919816131be565b811461392457600080fd5b50565b6139308161320a565b811461393b57600080fd5b5056fea2646970667358221220cfd7e6e6493ab4c01d3768509107de62ad5a5a4d2f3505d76821bba9b0235c6d64736f6c63430008040033",
  "linkReferences": {},
  "deployedLinkReferences": {}
}