{
  "_format": "hh-sol-artifact-1",
  "contractName": "AnonNews",
  "sourceName": "contracts/AnonNews.sol",
  "abi": [
    {
      "inputs": [],
      "stateMutability": "nonpayable",
      "type": "constructor"
    },
    {
      "anonymous": false,
      "inputs": [
        {
          "indexed": true,
          "internalType": "address",
          "name": "owner",
          "type": "address"
        },
        {
          "indexed": true,
          "internalType": "address",
          "name": "approved",
          "type": "address"
        },
        {
          "indexed": true,
          "internalType": "uint256",
          "name": "tokenId",
          "type": "uint256"
        }
      ],
      "name": "Approval",
      "type": "event"
    },
    {
      "anonymous": false,
      "inputs": [
        {
          "indexed": true,
          "internalType": "address",
          "name": "owner",
          "type": "address"
        },
        {
          "indexed": true,
          "internalType": "address",
          "name": "operator",
          "type": "address"
        },
        {
          "indexed": false,
          "internalType": "bool",
          "name": "approved",
          "type": "bool"
        }
      ],
      "name": "ApprovalForAll",
      "type": "event"
    },
    {
      "anonymous": false,
      "inputs": [
        {
          "indexed": false,
          "internalType": "uint256",
          "name": "id",
          "type": "uint256"
        },
        {
          "indexed": false,
          "internalType": "address payable",
          "name": "author",
          "type": "address"
        },
        {
          "indexed": false,
          "internalType": "string",
          "name": "postText",
          "type": "string"
        },
        {
          "indexed": false,
          "internalType": "string",
          "name": "mediaUrl",
          "type": "string"
        },
        {
          "indexed": false,
          "internalType": "uint256",
          "name": "votes",
          "type": "uint256"
        }
      ],
      "name": "NewsPosted",
      "type": "event"
    },
    {
      "anonymous": false,
      "inputs": [
        {
          "indexed": false,
          "internalType": "uint256",
          "name": "id",
          "type": "uint256"
        },
        {
          "indexed": false,
          "internalType": "address payable",
          "name": "author",
          "type": "address"
        },
        {
          "indexed": false,
          "internalType": "string",
          "name": "postText",
          "type": "string"
        },
        {
          "indexed": false,
          "internalType": "string",
          "name": "mediaUrl",
          "type": "string"
        },
        {
          "indexed": false,
          "internalType": "uint256",
          "name": "votes",
          "type": "uint256"
        }
      ],
      "name": "NewsVoted",
      "type": "event"
    },
    {
      "anonymous": false,
      "inputs": [
        {
          "indexed": true,
          "internalType": "address",
          "name": "from",
          "type": "address"
        },
        {
          "indexed": true,
          "internalType": "address",
          "name": "to",
          "type": "address"
        },
        {
          "indexed": true,
          "internalType": "uint256",
          "name": "tokenId",
          "type": "uint256"
        }
      ],
      "name": "Transfer",
      "type": "event"
    },
    {
      "inputs": [
        {
          "internalType": "address",
          "name": "to",
          "type": "address"
        },
        {
          "internalType": "uint256",
          "name": "tokenId",
          "type": "uint256"
        }
      ],
      "name": "approve",
      "outputs": [],
      "stateMutability": "nonpayable",
      "type": "function"
    },
    {
      "inputs": [
        {
          "internalType": "address",
          "name": "owner",
          "type": "address"
        }
      ],
      "name": "balanceOf",
      "outputs": [
        {
          "internalType": "uint256",
          "name": "",
          "type": "uint256"
        }
      ],
      "stateMutability": "view",
      "type": "function"
    },
    {
      "inputs": [],
      "name": "getAllPosts",
      "outputs": [
        {
          "components": [
            {
              "internalType": "uint256",
              "name": "id",
              "type": "uint256"
            },
            {
              "internalType": "address payable",
              "name": "author",
              "type": "address"
            },
            {
              "internalType": "string",
              "name": "postText",
              "type": "string"
            },
            {
              "internalType": "string",
              "name": "mediaUrl",
              "type": "string"
            },
            {
              "internalType": "uint256",
              "name": "votes",
              "type": "uint256"
            },
            {
              "internalType": "uint256",
              "name": "timestamp",
              "type": "uint256"
            }
          ],
          "internalType": "struct AnonNews.Post[]",
          "name": "_posts",
          "type": "tuple[]"
        }
      ],
      "stateMutability": "view",
      "type": "function"
    },
    {
      "inputs": [
        {
          "internalType": "uint256",
          "name": "tokenId",
          "type": "uint256"
        }
      ],
      "name": "getApproved",
      "outputs": [
        {
          "internalType": "address",
          "name": "",
          "type": "address"
        }
      ],
      "stateMutability": "view",
      "type": "function"
    },
    {
      "inputs": [],
      "name": "getPostCount",
      "outputs": [
        {
          "internalType": "uint256",
          "name": "",
          "type": "uint256"
        }
      ],
      "stateMutability": "view",
      "type": "function"
    },
    {
      "inputs": [
        {
          "internalType": "address",
          "name": "owner",
          "type": "address"
        },
        {
          "internalType": "address",
          "name": "operator",
          "type": "address"
        }
      ],
      "name": "isApprovedForAll",
      "outputs": [
        {
          "internalType": "bool",
          "name": "",
          "type": "bool"
        }
      ],
      "stateMutability": "view",
      "type": "function"
    },
    {
      "inputs": [],
      "name": "name",
      "outputs": [
        {
          "internalType": "string",
          "name": "",
          "type": "string"
        }
      ],
      "stateMutability": "view",
      "type": "function"
    },
    {
      "inputs": [
        {
          "internalType": "string",
          "name": "_message",
          "type": "string"
        },
        {
          "internalType": "string",
          "name": "mediaUrl",
          "type": "string"
        }
      ],
      "name": "newPost",
      "outputs": [],
      "stateMutability": "nonpayable",
      "type": "function"
    },
    {
      "inputs": [
        {
          "internalType": "uint256",
          "name": "tokenId",
          "type": "uint256"
        }
      ],
      "name": "ownerOf",
      "outputs": [
        {
          "internalType": "address",
          "name": "",
          "type": "address"
        }
      ],
      "stateMutability": "view",
      "type": "function"
    },
    {
      "inputs": [
        {
          "internalType": "uint256",
          "name": "_id",
          "type": "uint256"
        }
      ],
      "name": "postVote",
      "outputs": [],
      "stateMutability": "payable",
      "type": "function"
    },
    {
      "inputs": [
        {
          "internalType": "uint256",
          "name": "",
          "type": "uint256"
        }
      ],
      "name": "posts",
      "outputs": [
        {
          "internalType": "uint256",
          "name": "id",
          "type": "uint256"
        },
        {
          "internalType": "address payable",
          "name": "author",
          "type": "address"
        },
        {
          "internalType": "string",
          "name": "postText",
          "type": "string"
        },
        {
          "internalType": "string",
          "name": "mediaUrl",
          "type": "string"
        },
        {
          "internalType": "uint256",
          "name": "votes",
          "type": "uint256"
        },
        {
          "internalType": "uint256",
          "name": "timestamp",
          "type": "uint256"
        }
      ],
      "stateMutability": "view",
      "type": "function"
    },
    {
      "inputs": [
        {
          "internalType": "address",
          "name": "from",
          "type": "address"
        },
        {
          "internalType": "address",
          "name": "to",
          "type": "address"
        },
        {
          "internalType": "uint256",
          "name": "tokenId",
          "type": "uint256"
        }
      ],
      "name": "safeTransferFrom",
      "outputs": [],
      "stateMutability": "nonpayable",
      "type": "function"
    },
    {
      "inputs": [
        {
          "internalType": "address",
          "name": "from",
          "type": "address"
        },
        {
          "internalType": "address",
          "name": "to",
          "type": "address"
        },
        {
          "internalType": "uint256",
          "name": "tokenId",
          "type": "uint256"
        },
        {
          "internalType": "bytes",
          "name": "_data",
          "type": "bytes"
        }
      ],
      "name": "safeTransferFrom",
      "outputs": [],
      "stateMutability": "nonpayable",
      "type": "function"
    },
    {
      "inputs": [
        {
          "internalType": "address",
          "name": "operator",
          "type": "address"
        },
        {
          "internalType": "bool",
          "name": "approved",
          "type": "bool"
        }
      ],
      "name": "setApprovalForAll",
      "outputs": [],
      "stateMutability": "nonpayable",
      "type": "function"
    },
    {
      "inputs": [
        {
          "internalType": "bytes4",
          "name": "interfaceId",
          "type": "bytes4"
        }
      ],
      "name": "supportsInterface",
      "outputs": [
        {
          "internalType": "bool",
          "name": "",
          "type": "bool"
        }
      ],
      "stateMutability": "view",
      "type": "function"
    },
    {
      "inputs": [],
      "name": "symbol",
      "outputs": [
        {
          "internalType": "string",
          "name": "",
          "type": "string"
        }
      ],
      "stateMutability": "view",
      "type": "function"
    },
    {
      "inputs": [
        {
          "internalType": "uint256",
          "name": "tokenId",
          "type": "uint256"
        }
      ],
      "name": "tokenURI",
      "outputs": [
        {
          "internalType": "string",
          "name": "",
          "type": "string"
        }
      ],
      "stateMutability": "view",
      "type": "function"
    },
    {
      "inputs": [
        {
          "internalType": "address",
          "name": "from",
          "type": "address"
        },
        {
          "internalType": "address",
          "name": "to",
          "type": "address"
        },
        {
          "internalType": "uint256",
          "name": "tokenId",
          "type": "uint256"
        }
      ],
      "name": "transferFrom",
      "outputs": [],
      "stateMutability": "nonpayable",
      "type": "function"
    }
  ],
  "bytecode": "0x608060405260006007553480156200001657600080fd5b506040518060400160405280600881526020017f416e6f6e4e6577730000000000000000000000000000000000000000000000008152506040518060400160405280600481526020017f444150500000000000000000000000000000000000000000000000000000000081525081600090805190602001906200009b929190620001b8565b508060019080519060200190620000b4929190620001b8565b505050620000e660405180606001604052806027815260200162003bff60279139620000ec60201b6200160d1760201c565b62000395565b6200018c81604051602401620001039190620002a9565b6040516020818303038152906040527f41304fac000000000000000000000000000000000000000000000000000000007bffffffffffffffffffffffffffffffffffffffffffffffffffffffff19166020820180517bffffffffffffffffffffffffffffffffffffffffffffffffffffffff83818316178352505050506200018f60201b60201c565b50565b60008151905060006a636f6e736f6c652e6c6f679050602083016000808483855afa5050505050565b828054620001c6906200031f565b90600052602060002090601f016020900481019282620001ea576000855562000236565b82601f106200020557805160ff191683800117855562000236565b8280016001018555821562000236579182015b828111156200023557825182559160200191906001019062000218565b5b50905062000245919062000249565b5090565b5b80821115620002645760008160009055506001016200024a565b5090565b60006200027582620002cd565b620002818185620002d8565b935062000293818560208601620002e9565b6200029e8162000384565b840191505092915050565b60006020820190508181036000830152620002c5818462000268565b905092915050565b600081519050919050565b600082825260208201905092915050565b60005b8381101562000309578082015181840152602081019050620002ec565b8381111562000319576000848401525b50505050565b600060028204905060018216806200033857607f821691505b602082108114156200034f576200034e62000355565b5b50919050565b7f4e487b7100000000000000000000000000000000000000000000000000000000600052602260045260246000fd5b6000601f19601f8301169050919050565b61385a80620003a56000396000f3fe6080604052600436106101095760003560e01c80636a678a8a11610095578063a22cb46511610064578063a22cb46514610385578063b88d4fde146103ae578063bcc95407146103d7578063c87b56dd14610402578063e985e9c51461043f57610109565b80636a678a8a146102d857806370a08231146102f457806395d89b41146103315780639e28cf961461035c57610109565b80630b1e7f83116100dc5780630b1e7f83146101dc57806323b872dd1461021e578063305611001461024757806342842e0e146102725780636352211e1461029b57610109565b806301ffc9a71461010e57806306fdde031461014b578063081812fc14610176578063095ea7b3146101b3575b600080fd5b34801561011a57600080fd5b5061013560048036038101906101309190612572565b61047c565b6040516101429190612b94565b60405180910390f35b34801561015757600080fd5b5061016061055e565b60405161016d9190612baf565b60405180910390f35b34801561018257600080fd5b5061019d60048036038101906101989190612630565b6105f0565b6040516101aa9190612b0b565b60405180910390f35b3480156101bf57600080fd5b506101da60048036038101906101d59190612536565b610675565b005b3480156101e857600080fd5b5061020360048036038101906101fe9190612630565b61078d565b60405161021596959493929190612eae565b60405180910390f35b34801561022a57600080fd5b5061024560048036038101906102409190612430565b6108f9565b005b34801561025357600080fd5b5061025c610959565b6040516102699190612b72565b60405180910390f35b34801561027e57600080fd5b5061029960048036038101906102949190612430565b610c02565b005b3480156102a757600080fd5b506102c260048036038101906102bd9190612630565b610c22565b6040516102cf9190612b0b565b60405180910390f35b6102f260048036038101906102ed9190612630565b610cd4565b005b34801561030057600080fd5b5061031b600480360381019061031691906123cb565b6110bc565b6040516103289190612dd1565b60405180910390f35b34801561033d57600080fd5b50610346611174565b6040516103539190612baf565b60405180910390f35b34801561036857600080fd5b50610383600480360381019061037e91906125c4565b611206565b005b34801561039157600080fd5b506103ac60048036038101906103a791906124fa565b6113a5565b005b3480156103ba57600080fd5b506103d560048036038101906103d0919061247f565b6113bb565b005b3480156103e357600080fd5b506103ec61141d565b6040516103f99190612dd1565b60405180910390f35b34801561040e57600080fd5b5061042960048036038101906104249190612630565b611427565b6040516104369190612baf565b60405180910390f35b34801561044b57600080fd5b50610466600480360381019061046191906123f4565b611579565b6040516104739190612b94565b60405180910390f35b60007f80ac58cd000000000000000000000000000000000000000000000000000000007bffffffffffffffffffffffffffffffffffffffffffffffffffffffff1916827bffffffffffffffffffffffffffffffffffffffffffffffffffffffff1916148061054757507f5b5e139f000000000000000000000000000000000000000000000000000000007bffffffffffffffffffffffffffffffffffffffffffffffffffffffff1916827bffffffffffffffffffffffffffffffffffffffffffffffffffffffff1916145b806105575750610556826116a6565b5b9050919050565b60606000805461056d906131c6565b80601f0160208091040260200160405190810160405280929190818152602001828054610599906131c6565b80156105e65780601f106105bb576101008083540402835291602001916105e6565b820191906000526020600020905b8154815290600101906020018083116105c957829003601f168201915b5050505050905090565b60006105fb82611710565b61063a576040517f08c379a000000000000000000000000000000000000000000000000000000000815260040161063190612d51565b60405180910390fd5b6004600083815260200190815260200160002060009054906101000a900473ffffffffffffffffffffffffffffffffffffffff169050919050565b600061068082610c22565b90508073ffffffffffffffffffffffffffffffffffffffff168373ffffffffffffffffffffffffffffffffffffffff1614156106f1576040517f08c379a00000000000000000000000000000000000000000000000000000000081526004016106e890612d91565b60405180910390fd5b8073ffffffffffffffffffffffffffffffffffffffff1661071061177c565b73ffffffffffffffffffffffffffffffffffffffff16148061073f575061073e8161073961177c565b611579565b5b61077e576040517f08c379a000000000000000000000000000000000000000000000000000000000815260040161077590612c71565b60405180910390fd5b6107888383611784565b505050565b60086020528060005260406000206000915090508060000154908060010160009054906101000a900473ffffffffffffffffffffffffffffffffffffffff16908060020180546107dc906131c6565b80601f0160208091040260200160405190810160405280929190818152602001828054610808906131c6565b80156108555780601f1061082a57610100808354040283529160200191610855565b820191906000526020600020905b81548152906001019060200180831161083857829003601f168201915b50505050509080600301805461086a906131c6565b80601f0160208091040260200160405190810160405280929190818152602001828054610896906131c6565b80156108e35780601f106108b8576101008083540402835291602001916108e3565b820191906000526020600020905b8154815290600101906020018083116108c657829003601f168201915b5050505050908060040154908060050154905086565b61090a61090461177c565b8261183d565b610949576040517f08c379a000000000000000000000000000000000000000000000000000000000815260040161094090612db1565b60405180910390fd5b61095483838361191b565b505050565b606060075467ffffffffffffffff81111561099d577f4e487b7100000000000000000000000000000000000000000000000000000000600052604160045260246000fd5b6040519080825280602002602001820160405280156109d657816020015b6109c36121a3565b8152602001906001900390816109bb5790505b50905060005b8151811015610bfe57600860006001836109f69190613031565b81526020019081526020016000206040518060c0016040529081600082015481526020016001820160009054906101000a900473ffffffffffffffffffffffffffffffffffffffff1673ffffffffffffffffffffffffffffffffffffffff1673ffffffffffffffffffffffffffffffffffffffff168152602001600282018054610a7f906131c6565b80601f0160208091040260200160405190810160405280929190818152602001828054610aab906131c6565b8015610af85780601f10610acd57610100808354040283529160200191610af8565b820191906000526020600020905b815481529060010190602001808311610adb57829003601f168201915b50505050508152602001600382018054610b11906131c6565b80601f0160208091040260200160405190810160405280929190818152602001828054610b3d906131c6565b8015610b8a5780601f10610b5f57610100808354040283529160200191610b8a565b820191906000526020600020905b815481529060010190602001808311610b6d57829003601f168201915b5050505050815260200160048201548152602001600582015481525050828281518110610be0577f4e487b7100000000000000000000000000000000000000000000000000000000600052603260045260246000fd5b60200260200101819052508080610bf690613229565b9150506109dc565b5090565b610c1d838383604051806020016040528060008152506113bb565b505050565b6000806002600084815260200190815260200160002060009054906101000a900473ffffffffffffffffffffffffffffffffffffffff169050600073ffffffffffffffffffffffffffffffffffffffff168173ffffffffffffffffffffffffffffffffffffffff161415610ccb576040517f08c379a0000000000000000000000000000000000000000000000000000000008152600401610cc290612cb1565b60405180910390fd5b80915050919050565b600081118015610ce657506007548111155b610d25576040517f08c379a0000000000000000000000000000000000000000000000000000000008152600401610d1c90612cf1565b60405180910390fd5b6000600860008381526020019081526020016000206040518060c0016040529081600082015481526020016001820160009054906101000a900473ffffffffffffffffffffffffffffffffffffffff1673ffffffffffffffffffffffffffffffffffffffff1673ffffffffffffffffffffffffffffffffffffffff168152602001600282018054610db5906131c6565b80601f0160208091040260200160405190810160405280929190818152602001828054610de1906131c6565b8015610e2e5780601f10610e0357610100808354040283529160200191610e2e565b820191906000526020600020905b815481529060010190602001808311610e1157829003601f168201915b50505050508152602001600382018054610e47906131c6565b80601f0160208091040260200160405190810160405280929190818152602001828054610e73906131c6565b8015610ec05780601f10610e9557610100808354040283529160200191610ec0565b820191906000526020600020905b815481529060010190602001808311610ea357829003601f168201915b505050505081526020016004820154815260200160058201548152505090503373ffffffffffffffffffffffffffffffffffffffff16816020015173ffffffffffffffffffffffffffffffffffffffff161415610f52576040517f08c379a0000000000000000000000000000000000000000000000000000000008152600401610f4990612d11565b60405180910390fd5b806020015173ffffffffffffffffffffffffffffffffffffffff166108fc349081150290604051600060405180830381858888f19350505050158015610f9c573d6000803e3d6000fd5b50806080018051809190610faf90613229565b8152505080600860008481526020019081526020016000206000820151816000015560208201518160010160006101000a81548173ffffffffffffffffffffffffffffffffffffffff021916908373ffffffffffffffffffffffffffffffffffffffff16021790555060408201518160020190805190602001906110349291906121ef565b5060608201518160030190805190602001906110519291906121ef565b506080820151816004015560a082015181600501559050507fad0f91031d38a70eb4e71a5d56ce0c44d9ef00fd86e98e395def3801a00ae3f78282602001518360400151846060015185608001516040516110b0959493929190612e4d565b60405180910390a15050565b60008073ffffffffffffffffffffffffffffffffffffffff168273ffffffffffffffffffffffffffffffffffffffff16141561112d576040517f08c379a000000000000000000000000000000000000000000000000000000000815260040161112490612c91565b60405180910390fd5b600360008373ffffffffffffffffffffffffffffffffffffffff1673ffffffffffffffffffffffffffffffffffffffff168152602001908152602001600020549050919050565b606060018054611183906131c6565b80601f01602080910402602001604051908101604052809291908181526020018280546111af906131c6565b80156111fc5780601f106111d1576101008083540402835291602001916111fc565b820191906000526020600020905b8154815290600101906020018083116111df57829003601f168201915b5050505050905090565b600082511161124a576040517f08c379a000000000000000000000000000000000000000000000000000000000815260040161124190612cd1565b60405180910390fd5b6007600081548092919061125d90613229565b91905055506040518060c0016040528060075481526020013373ffffffffffffffffffffffffffffffffffffffff16815260200183815260200182815260200160008152602001428152506008600060075481526020019081526020016000206000820151816000015560208201518160010160006101000a81548173ffffffffffffffffffffffffffffffffffffffff021916908373ffffffffffffffffffffffffffffffffffffffff160217905550604082015181600201908051906020019061132a9291906121ef565b5060608201518160030190805190602001906113479291906121ef565b506080820151816004015560a082015181600501559050507f9053ea796e361ba791adf8f04aaecf525a01d7a94e644b42ddcd396876f08c246007543384846000604051611399959493929190612dec565b60405180910390a15050565b6113b76113b061177c565b8383611b82565b5050565b6113cc6113c661177c565b8361183d565b61140b576040517f08c379a000000000000000000000000000000000000000000000000000000000815260040161140290612db1565b60405180910390fd5b61141784848484611cef565b50505050565b6000600754905090565b606061143282611710565b611471576040517f08c379a000000000000000000000000000000000000000000000000000000000815260040161146890612d31565b60405180910390fd5b6000600660008481526020019081526020016000208054611491906131c6565b80601f01602080910402602001604051908101604052809291908181526020018280546114bd906131c6565b801561150a5780601f106114df5761010080835404028352916020019161150a565b820191906000526020600020905b8154815290600101906020018083116114ed57829003601f168201915b50505050509050600061151b611d4b565b9050600081511415611531578192505050611574565b60008251111561156657808260405160200161154e929190612ae7565b60405160208183030381529060405292505050611574565b61156f84611d62565b925050505b919050565b6000600560008473ffffffffffffffffffffffffffffffffffffffff1673ffffffffffffffffffffffffffffffffffffffff16815260200190815260200160002060008373ffffffffffffffffffffffffffffffffffffffff1673ffffffffffffffffffffffffffffffffffffffff16815260200190815260200160002060009054906101000a900460ff16905092915050565b6116a3816040516024016116219190612baf565b6040516020818303038152906040527f41304fac000000000000000000000000000000000000000000000000000000007bffffffffffffffffffffffffffffffffffffffffffffffffffffffff19166020820180517bffffffffffffffffffffffffffffffffffffffffffffffffffffffff8381831617835250505050611e09565b50565b60007f01ffc9a7000000000000000000000000000000000000000000000000000000007bffffffffffffffffffffffffffffffffffffffffffffffffffffffff1916827bffffffffffffffffffffffffffffffffffffffffffffffffffffffff1916149050919050565b60008073ffffffffffffffffffffffffffffffffffffffff166002600084815260200190815260200160002060009054906101000a900473ffffffffffffffffffffffffffffffffffffffff1673ffffffffffffffffffffffffffffffffffffffff1614159050919050565b600033905090565b816004600083815260200190815260200160002060006101000a81548173ffffffffffffffffffffffffffffffffffffffff021916908373ffffffffffffffffffffffffffffffffffffffff160217905550808273ffffffffffffffffffffffffffffffffffffffff166117f783610c22565b73ffffffffffffffffffffffffffffffffffffffff167f8c5be1e5ebec7d5bd14f71427d1e84f3dd0314c0f7b2291e5b200ac8c7c3b92560405160405180910390a45050565b600061184882611710565b611887576040517f08c379a000000000000000000000000000000000000000000000000000000000815260040161187e90612c51565b60405180910390fd5b600061189283610c22565b90508073ffffffffffffffffffffffffffffffffffffffff168473ffffffffffffffffffffffffffffffffffffffff1614806118d457506118d38185611579565b5b8061191257508373ffffffffffffffffffffffffffffffffffffffff166118fa846105f0565b73ffffffffffffffffffffffffffffffffffffffff16145b91505092915050565b8273ffffffffffffffffffffffffffffffffffffffff1661193b82610c22565b73ffffffffffffffffffffffffffffffffffffffff1614611991576040517f08c379a000000000000000000000000000000000000000000000000000000000815260040161198890612bf1565b60405180910390fd5b600073ffffffffffffffffffffffffffffffffffffffff168273ffffffffffffffffffffffffffffffffffffffff161415611a01576040517f08c379a00000000000000000000000000000000000000000000000000000000081526004016119f890612c11565b60405180910390fd5b611a0c838383611e32565b611a17600082611784565b6001600360008573ffffffffffffffffffffffffffffffffffffffff1673ffffffffffffffffffffffffffffffffffffffff1681526020019081526020016000206000828254611a6791906130b8565b925050819055506001600360008473ffffffffffffffffffffffffffffffffffffffff1673ffffffffffffffffffffffffffffffffffffffff1681526020019081526020016000206000828254611abe9190613031565b92505081905550816002600083815260200190815260200160002060006101000a81548173ffffffffffffffffffffffffffffffffffffffff021916908373ffffffffffffffffffffffffffffffffffffffff160217905550808273ffffffffffffffffffffffffffffffffffffffff168473ffffffffffffffffffffffffffffffffffffffff167fddf252ad1be2c89b69c2b068fc378daa952ba7f163c4a11628f55a4df523b3ef60405160405180910390a4611b7d838383611e37565b505050565b8173ffffffffffffffffffffffffffffffffffffffff168373ffffffffffffffffffffffffffffffffffffffff161415611bf1576040517f08c379a0000000000000000000000000000000000000000000000000000000008152600401611be890612c31565b60405180910390fd5b80600560008573ffffffffffffffffffffffffffffffffffffffff1673ffffffffffffffffffffffffffffffffffffffff16815260200190815260200160002060008473ffffffffffffffffffffffffffffffffffffffff1673ffffffffffffffffffffffffffffffffffffffff16815260200190815260200160002060006101000a81548160ff0219169083151502179055508173ffffffffffffffffffffffffffffffffffffffff168373ffffffffffffffffffffffffffffffffffffffff167f17307eab39ab6107e8899845ad3d59bd9653f200f220920489ca2b5937696c3183604051611ce29190612b94565b60405180910390a3505050565b611cfa84848461191b565b611d0684848484611e3c565b611d45576040517f08c379a0000000000000000000000000000000000000000000000000000000008152600401611d3c90612bd1565b60405180910390fd5b50505050565b606060405180602001604052806000815250905090565b6060611d6d82611710565b611dac576040517f08c379a0000000000000000000000000000000000000000000000000000000008152600401611da390612d71565b60405180910390fd5b6000611db6611d4b565b90506000815111611dd65760405180602001604052806000815250611e01565b80611de084611fd3565b604051602001611df1929190612ae7565b6040516020818303038152906040525b915050919050565b60008151905060006a636f6e736f6c652e6c6f679050602083016000808483855afa5050505050565b505050565b505050565b6000611e5d8473ffffffffffffffffffffffffffffffffffffffff16612180565b15611fc6578373ffffffffffffffffffffffffffffffffffffffff1663150b7a02611e8661177c565b8786866040518563ffffffff1660e01b8152600401611ea89493929190612b26565b602060405180830381600087803b158015611ec257600080fd5b505af1925050508015611ef357506040513d601f19601f82011682018060405250810190611ef0919061259b565b60015b611f76573d8060008114611f23576040519150601f19603f3d011682016040523d82523d6000602084013e611f28565b606091505b50600081511415611f6e576040517f08c379a0000000000000000000000000000000000000000000000000000000008152600401611f6590612bd1565b60405180910390fd5b805181602001fd5b63150b7a0260e01b7bffffffffffffffffffffffffffffffffffffffffffffffffffffffff1916817bffffffffffffffffffffffffffffffffffffffffffffffffffffffff191614915050611fcb565b600190505b949350505050565b6060600082141561201b576040518060400160405280600181526020017f3000000000000000000000000000000000000000000000000000000000000000815250905061217b565b600082905060005b6000821461204d57808061203690613229565b915050600a826120469190613087565b9150612023565b60008167ffffffffffffffff81111561208f577f4e487b7100000000000000000000000000000000000000000000000000000000600052604160045260246000fd5b6040519080825280601f01601f1916602001820160405280156120c15781602001600182028036833780820191505090505b5090505b60008514612174576001826120da91906130b8565b9150600a856120e99190613272565b60306120f59190613031565b60f81b818381518110612131577f4e487b7100000000000000000000000000000000000000000000000000000000600052603260045260246000fd5b60200101907effffffffffffffffffffffffffffffffffffffffffffffffffffffffffffff1916908160001a905350600a8561216d9190613087565b94506120c5565b8093505050505b919050565b6000808273ffffffffffffffffffffffffffffffffffffffff163b119050919050565b6040518060c0016040528060008152602001600073ffffffffffffffffffffffffffffffffffffffff168152602001606081526020016060815260200160008152602001600081525090565b8280546121fb906131c6565b90600052602060002090601f01602090048101928261221d5760008555612264565b82601f1061223657805160ff1916838001178555612264565b82800160010185558215612264579182015b82811115612263578251825591602001919060010190612248565b5b5090506122719190612275565b5090565b5b8082111561228e576000816000905550600101612276565b5090565b60006122a56122a084612f42565b612f1d565b9050828152602081018484840111156122bd57600080fd5b6122c8848285613184565b509392505050565b60006122e36122de84612f73565b612f1d565b9050828152602081018484840111156122fb57600080fd5b612306848285613184565b509392505050565b60008135905061231d816137c8565b92915050565b600081359050612332816137df565b92915050565b600081359050612347816137f6565b92915050565b60008151905061235c816137f6565b92915050565b600082601f83011261237357600080fd5b8135612383848260208601612292565b91505092915050565b600082601f83011261239d57600080fd5b81356123ad8482602086016122d0565b91505092915050565b6000813590506123c58161380d565b92915050565b6000602082840312156123dd57600080fd5b60006123eb8482850161230e565b91505092915050565b6000806040838503121561240757600080fd5b60006124158582860161230e565b92505060206124268582860161230e565b9150509250929050565b60008060006060848603121561244557600080fd5b60006124538682870161230e565b93505060206124648682870161230e565b9250506040612475868287016123b6565b9150509250925092565b6000806000806080858703121561249557600080fd5b60006124a38782880161230e565b94505060206124b48782880161230e565b93505060406124c5878288016123b6565b925050606085013567ffffffffffffffff8111156124e257600080fd5b6124ee87828801612362565b91505092959194509250565b6000806040838503121561250d57600080fd5b600061251b8582860161230e565b925050602061252c85828601612323565b9150509250929050565b6000806040838503121561254957600080fd5b60006125578582860161230e565b9250506020612568858286016123b6565b9150509250929050565b60006020828403121561258457600080fd5b600061259284828501612338565b91505092915050565b6000602082840312156125ad57600080fd5b60006125bb8482850161234d565b91505092915050565b600080604083850312156125d757600080fd5b600083013567ffffffffffffffff8111156125f157600080fd5b6125fd8582860161238c565b925050602083013567ffffffffffffffff81111561261a57600080fd5b6126268582860161238c565b9150509250929050565b60006020828403121561264257600080fd5b6000612650848285016123b6565b91505092915050565b60006126658383612a39565b905092915050565b612676816130fe565b82525050565b612685816130fe565b82525050565b612694816130ec565b82525050565b60006126a582612fb4565b6126af8185612fe2565b9350836020820285016126c185612fa4565b8060005b858110156126fd57848403895281516126de8582612659565b94506126e983612fd5565b925060208a019950506001810190506126c5565b50829750879550505050505092915050565b61271881613110565b82525050565b600061272982612fbf565b6127338185612ff3565b9350612743818560208601613193565b61274c8161335f565b840191505092915050565b61276081613172565b82525050565b600061277182612fca565b61277b8185613004565b935061278b818560208601613193565b6127948161335f565b840191505092915050565b60006127aa82612fca565b6127b48185613015565b93506127c4818560208601613193565b6127cd8161335f565b840191505092915050565b60006127e382612fca565b6127ed8185613026565b93506127fd818560208601613193565b80840191505092915050565b6000612816603283613015565b915061282182613370565b604082019050919050565b6000612839602583613015565b9150612844826133bf565b604082019050919050565b600061285c602483613015565b91506128678261340e565b604082019050919050565b600061287f601983613015565b915061288a8261345d565b602082019050919050565b60006128a2602c83613015565b91506128ad82613486565b604082019050919050565b60006128c5603883613015565b91506128d0826134d5565b604082019050919050565b60006128e8602a83613015565b91506128f382613524565b604082019050919050565b600061290b602983613015565b915061291682613573565b604082019050919050565b600061292e601983613015565b9150612939826135c2565b602082019050919050565b6000612951600f83613015565b915061295c826135eb565b602082019050919050565b6000612974601983613015565b915061297f82613614565b602082019050919050565b6000612997603183613015565b91506129a28261363d565b604082019050919050565b60006129ba602c83613015565b91506129c58261368c565b604082019050919050565b60006129dd602f83613015565b91506129e8826136db565b604082019050919050565b6000612a00602183613015565b9150612a0b8261372a565b604082019050919050565b6000612a23603183613015565b9150612a2e82613779565b604082019050919050565b600060c083016000830151612a516000860182612ac9565b506020830151612a64602086018261266d565b5060408301518482036040860152612a7c8282612766565b91505060608301518482036060860152612a968282612766565b9150506080830151612aab6080860182612ac9565b5060a0830151612abe60a0860182612ac9565b508091505092915050565b612ad281613168565b82525050565b612ae181613168565b82525050565b6000612af382856127d8565b9150612aff82846127d8565b91508190509392505050565b6000602082019050612b20600083018461268b565b92915050565b6000608082019050612b3b600083018761268b565b612b48602083018661268b565b612b556040830185612ad8565b8181036060830152612b67818461271e565b905095945050505050565b60006020820190508181036000830152612b8c818461269a565b905092915050565b6000602082019050612ba9600083018461270f565b92915050565b60006020820190508181036000830152612bc9818461279f565b905092915050565b60006020820190508181036000830152612bea81612809565b9050919050565b60006020820190508181036000830152612c0a8161282c565b9050919050565b60006020820190508181036000830152612c2a8161284f565b9050919050565b60006020820190508181036000830152612c4a81612872565b9050919050565b60006020820190508181036000830152612c6a81612895565b9050919050565b60006020820190508181036000830152612c8a816128b8565b9050919050565b60006020820190508181036000830152612caa816128db565b9050919050565b60006020820190508181036000830152612cca816128fe565b9050919050565b60006020820190508181036000830152612cea81612921565b9050919050565b60006020820190508181036000830152612d0a81612944565b9050919050565b60006020820190508181036000830152612d2a81612967565b9050919050565b60006020820190508181036000830152612d4a8161298a565b9050919050565b60006020820190508181036000830152612d6a816129ad565b9050919050565b60006020820190508181036000830152612d8a816129d0565b9050919050565b60006020820190508181036000830152612daa816129f3565b9050919050565b60006020820190508181036000830152612dca81612a16565b9050919050565b6000602082019050612de66000830184612ad8565b92915050565b600060a082019050612e016000830188612ad8565b612e0e602083018761267c565b8181036040830152612e20818661279f565b90508181036060830152612e34818561279f565b9050612e436080830184612757565b9695505050505050565b600060a082019050612e626000830188612ad8565b612e6f602083018761267c565b8181036040830152612e81818661279f565b90508181036060830152612e95818561279f565b9050612ea46080830184612ad8565b9695505050505050565b600060c082019050612ec36000830189612ad8565b612ed0602083018861267c565b8181036040830152612ee2818761279f565b90508181036060830152612ef6818661279f565b9050612f056080830185612ad8565b612f1260a0830184612ad8565b979650505050505050565b6000612f27612f38565b9050612f3382826131f8565b919050565b6000604051905090565b600067ffffffffffffffff821115612f5d57612f5c613330565b5b612f668261335f565b9050602081019050919050565b600067ffffffffffffffff821115612f8e57612f8d613330565b5b612f978261335f565b9050602081019050919050565b6000819050602082019050919050565b600081519050919050565b600081519050919050565b600081519050919050565b6000602082019050919050565b600082825260208201905092915050565b600082825260208201905092915050565b600082825260208201905092915050565b600082825260208201905092915050565b600081905092915050565b600061303c82613168565b915061304783613168565b9250827fffffffffffffffffffffffffffffffffffffffffffffffffffffffffffffffff0382111561307c5761307b6132a3565b5b828201905092915050565b600061309282613168565b915061309d83613168565b9250826130ad576130ac6132d2565b5b828204905092915050565b60006130c382613168565b91506130ce83613168565b9250828210156130e1576130e06132a3565b5b828203905092915050565b60006130f782613148565b9050919050565b600061310982613148565b9050919050565b60008115159050919050565b60007fffffffff0000000000000000000000000000000000000000000000000000000082169050919050565b600073ffffffffffffffffffffffffffffffffffffffff82169050919050565b6000819050919050565b600061317d82613168565b9050919050565b82818337600083830152505050565b60005b838110156131b1578082015181840152602081019050613196565b838111156131c0576000848401525b50505050565b600060028204905060018216806131de57607f821691505b602082108114156131f2576131f1613301565b5b50919050565b6132018261335f565b810181811067ffffffffffffffff821117156132205761321f613330565b5b80604052505050565b600061323482613168565b91507fffffffffffffffffffffffffffffffffffffffffffffffffffffffffffffffff821415613267576132666132a3565b5b600182019050919050565b600061327d82613168565b915061328883613168565b925082613298576132976132d2565b5b828206905092915050565b7f4e487b7100000000000000000000000000000000000000000000000000000000600052601160045260246000fd5b7f4e487b7100000000000000000000000000000000000000000000000000000000600052601260045260246000fd5b7f4e487b7100000000000000000000000000000000000000000000000000000000600052602260045260246000fd5b7f4e487b7100000000000000000000000000000000000000000000000000000000600052604160045260246000fd5b6000601f19601f8301169050919050565b7f4552433732313a207472616e7366657220746f206e6f6e20455243373231526560008201527f63656976657220696d706c656d656e7465720000000000000000000000000000602082015250565b7f4552433732313a207472616e736665722066726f6d20696e636f72726563742060008201527f6f776e6572000000000000000000000000000000000000000000000000000000602082015250565b7f4552433732313a207472616e7366657220746f20746865207a65726f2061646460008201527f7265737300000000000000000000000000000000000000000000000000000000602082015250565b7f4552433732313a20617070726f766520746f2063616c6c657200000000000000600082015250565b7f4552433732313a206f70657261746f7220717565727920666f72206e6f6e657860008201527f697374656e7420746f6b656e0000000000000000000000000000000000000000602082015250565b7f4552433732313a20617070726f76652063616c6c6572206973206e6f74206f7760008201527f6e6572206e6f7220617070726f76656420666f7220616c6c0000000000000000602082015250565b7f4552433732313a2062616c616e636520717565727920666f7220746865207a6560008201527f726f206164647265737300000000000000000000000000000000000000000000602082015250565b7f4552433732313a206f776e657220717565727920666f72206e6f6e657869737460008201527f656e7420746f6b656e0000000000000000000000000000000000000000000000602082015250565b7f43616e6e6f7420706f737420616e20656d70747920706f737400000000000000600082015250565b7f496e76616c696420706f73742069640000000000000000000000000000000000600082015250565b7f43616e6e6f7420766f746520796f7572206f776e20706f737400000000000000600082015250565b7f45524337323155524953746f726167653a2055524920717565727920666f722060008201527f6e6f6e6578697374656e7420746f6b656e000000000000000000000000000000602082015250565b7f4552433732313a20617070726f76656420717565727920666f72206e6f6e657860008201527f697374656e7420746f6b656e0000000000000000000000000000000000000000602082015250565b7f4552433732314d657461646174613a2055524920717565727920666f72206e6f60008201527f6e6578697374656e7420746f6b656e0000000000000000000000000000000000602082015250565b7f4552433732313a20617070726f76616c20746f2063757272656e74206f776e6560008201527f7200000000000000000000000000000000000000000000000000000000000000602082015250565b7f4552433732313a207472616e736665722063616c6c6572206973206e6f74206f60008201527f776e6572206e6f7220617070726f766564000000000000000000000000000000602082015250565b6137d1816130ec565b81146137dc57600080fd5b50565b6137e881613110565b81146137f357600080fd5b50565b6137ff8161311c565b811461380a57600080fd5b50565b61381681613168565b811461382157600080fd5b5056fea264697066735822122049e8b791e783ed553ad8998c236967b970ccbe68ec8db765fa99ee7939728e4664736f6c63430008040033546869732069732074686520736d61727420636f6e747261637420666f7220416e6f6e4e657773",
  "linkReferences": {},
  "deployedLinkReferences": {}
}