{
  "_format": "hh-sol-artifact-1",
  "contractName": "AnonNews",
  "sourceName": "contracts/AnonNews.sol",
  "abi": [
    {
      "inputs": [],
      "stateMutability": "nonpayable",
      "type": "constructor"
    },
    {
      "anonymous": false,
      "inputs": [
        {
          "indexed": true,
          "internalType": "address",
          "name": "from",
          "type": "address"
        },
        {
          "indexed": false,
          "internalType": "uint256",
          "name": "timestamp",
          "type": "uint256"
        },
        {
          "indexed": false,
          "internalType": "string",
          "name": "message",
          "type": "string"
        },
        {
          "indexed": false,
          "internalType": "string",
          "name": "mediaUrl",
          "type": "string"
        }
      ],
      "name": "NewPosted",
      "type": "event"
    },
    {
      "inputs": [],
      "name": "getAllPosts",
      "outputs": [
        {
          "components": [
            {
              "internalType": "address",
              "name": "voter",
              "type": "address"
            },
            {
              "internalType": "string",
              "name": "message",
              "type": "string"
            },
            {
              "internalType": "string",
              "name": "mediaUrl",
              "type": "string"
            },
            {
              "internalType": "uint256",
              "name": "timestamp",
              "type": "uint256"
            }
          ],
          "internalType": "struct AnonNews.Post[]",
          "name": "",
          "type": "tuple[]"
        }
      ],
      "stateMutability": "view",
      "type": "function"
    },
    {
      "inputs": [],
      "name": "getPostCounts",
      "outputs": [
        {
          "internalType": "uint256",
          "name": "",
          "type": "uint256"
        }
      ],
      "stateMutability": "view",
      "type": "function"
    },
    {
      "inputs": [
        {
          "internalType": "string",
          "name": "_message",
          "type": "string"
        },
        {
          "internalType": "string",
          "name": "mediaUrl",
          "type": "string"
        }
      ],
      "name": "newPost",
      "outputs": [],
      "stateMutability": "nonpayable",
      "type": "function"
    }
  ],
  "bytecode": "0x60806040523480156200001157600080fd5b506200004160405180606001604052806027815260200162000ce3602791396200004760201b620003e81760201c565b620001db565b620000e7816040516024016200005e919062000154565b6040516020818303038152906040527f41304fac000000000000000000000000000000000000000000000000000000007bffffffffffffffffffffffffffffffffffffffffffffffffffffffff19166020820180517bffffffffffffffffffffffffffffffffffffffffffffffffffffffff8381831617835250505050620000ea60201b60201c565b50565b60008151905060006a636f6e736f6c652e6c6f679050602083016000808483855afa5050505050565b6000620001208262000178565b6200012c818562000183565b93506200013e81856020860162000194565b6200014981620001ca565b840191505092915050565b6000602082019050818103600083015262000170818462000113565b905092915050565b600081519050919050565b600082825260208201905092915050565b60005b83811015620001b457808201518184015260208101905062000197565b83811115620001c4576000848401525b50505050565b6000601f19601f8301169050919050565b610af880620001eb6000396000f3fe608060405234801561001057600080fd5b50600436106100415760003560e01c806330561100146100465780638837cfa9146100645780639e28cf9614610082575b600080fd5b61004e61009e565b60405161005b91906107b3565b60405180910390f35b61006c610281565b60405161007991906107f7565b60405180910390f35b61009c600480360381019061009791906105b5565b61028a565b005b60606001805480602002602001604051908101604052809291908181526020016000905b8282101561027857838290600052602060002090600402016040518060800160405290816000820160009054906101000a900473ffffffffffffffffffffffffffffffffffffffff1673ffffffffffffffffffffffffffffffffffffffff1673ffffffffffffffffffffffffffffffffffffffff16815260200160018201805461014b906109f2565b80601f0160208091040260200160405190810160405280929190818152602001828054610177906109f2565b80156101c45780601f10610199576101008083540402835291602001916101c4565b820191906000526020600020905b8154815290600101906020018083116101a757829003601f168201915b505050505081526020016002820180546101dd906109f2565b80601f0160208091040260200160405190810160405280929190818152602001828054610209906109f2565b80156102565780601f1061022b57610100808354040283529160200191610256565b820191906000526020600020905b81548152906001019060200180831161023957829003601f168201915b50505050508152602001600382015481525050815260200190600101906100c2565b50505050905090565b60008054905090565b600160008082825461029c919061091e565b92505081905550600160405180608001604052803373ffffffffffffffffffffffffffffffffffffffff16815260200184815260200183815260200142815250908060018154018082558091505060019003906000526020600020906004020160009091909190915060008201518160000160006101000a81548173ffffffffffffffffffffffffffffffffffffffff021916908373ffffffffffffffffffffffffffffffffffffffff16021790555060208201518160010190805190602001906103689291906104aa565b5060408201518160020190805190602001906103859291906104aa565b506060820151816003015550503373ffffffffffffffffffffffffffffffffffffffff167f758ded5c45cea3c721493bbfc371d572184b36a4cc87f7a227aa4e110b3e4a934284846040516103dc93929190610812565b60405180910390a25050565b61047e816040516024016103fc91906107d5565b6040516020818303038152906040527f41304fac000000000000000000000000000000000000000000000000000000007bffffffffffffffffffffffffffffffffffffffffffffffffffffffff19166020820180517bffffffffffffffffffffffffffffffffffffffffffffffffffffffff8381831617835250505050610481565b50565b60008151905060006a636f6e736f6c652e6c6f679050602083016000808483855afa5050505050565b8280546104b6906109f2565b90600052602060002090601f0160209004810192826104d8576000855561051f565b82601f106104f157805160ff191683800117855561051f565b8280016001018555821561051f579182015b8281111561051e578251825591602001919060010190610503565b5b50905061052c9190610530565b5090565b5b80821115610549576000816000905550600101610531565b5090565b600061056061055b84610888565b610857565b90508281526020810184848401111561057857600080fd5b6105838482856109b0565b509392505050565b600082601f83011261059c57600080fd5b81356105ac84826020860161054d565b91505092915050565b600080604083850312156105c857600080fd5b600083013567ffffffffffffffff8111156105e257600080fd5b6105ee8582860161058b565b925050602083013567ffffffffffffffff81111561060b57600080fd5b6106178582860161058b565b9150509250929050565b600061062d838361072b565b905092915050565b61063e81610974565b82525050565b600061064f826108c8565b61065981856108eb565b93508360208202850161066b856108b8565b8060005b858110156106a757848403895281516106888582610621565b9450610693836108de565b925060208a0199505060018101905061066f565b50829750879550505050505092915050565b60006106c4826108d3565b6106ce81856108fc565b93506106de8185602086016109bf565b6106e781610ab1565b840191505092915050565b60006106fd826108d3565b610707818561090d565b93506107178185602086016109bf565b61072081610ab1565b840191505092915050565b60006080830160008301516107436000860182610635565b506020830151848203602086015261075b82826106b9565b9150506040830151848203604086015261077582826106b9565b915050606083015161078a6060860182610795565b508091505092915050565b61079e816109a6565b82525050565b6107ad816109a6565b82525050565b600060208201905081810360008301526107cd8184610644565b905092915050565b600060208201905081810360008301526107ef81846106f2565b905092915050565b600060208201905061080c60008301846107a4565b92915050565b600060608201905061082760008301866107a4565b818103602083015261083981856106f2565b9050818103604083015261084d81846106f2565b9050949350505050565b6000604051905081810181811067ffffffffffffffff8211171561087e5761087d610a82565b5b8060405250919050565b600067ffffffffffffffff8211156108a3576108a2610a82565b5b601f19601f8301169050602081019050919050565b6000819050602082019050919050565b600081519050919050565b600081519050919050565b6000602082019050919050565b600082825260208201905092915050565b600082825260208201905092915050565b600082825260208201905092915050565b6000610929826109a6565b9150610934836109a6565b9250827fffffffffffffffffffffffffffffffffffffffffffffffffffffffffffffffff0382111561096957610968610a24565b5b828201905092915050565b600061097f82610986565b9050919050565b600073ffffffffffffffffffffffffffffffffffffffff82169050919050565b6000819050919050565b82818337600083830152505050565b60005b838110156109dd5780820151818401526020810190506109c2565b838111156109ec576000848401525b50505050565b60006002820490506001821680610a0a57607f821691505b60208210811415610a1e57610a1d610a53565b5b50919050565b7f4e487b7100000000000000000000000000000000000000000000000000000000600052601160045260246000fd5b7f4e487b7100000000000000000000000000000000000000000000000000000000600052602260045260246000fd5b7f4e487b7100000000000000000000000000000000000000000000000000000000600052604160045260246000fd5b6000601f19601f830116905091905056fea264697066735822122081e72bd8670b11dd3c65327ec023d4611db0b210b7821689c1b7c72ca278dd6464736f6c63430008000033546869732069732074686520736d61727420636f6e747261637420666f7220416e6f6e4e657773",
  "linkReferences": {},
  "deployedLinkReferences": {}
}